{
  "_format": "hh-sol-artifact-1",
  "contractName": "Farmers",
  "sourceName": "contracts/Farmer.sol",
  "abi": [
    {
      "inputs": [],
      "stateMutability": "nonpayable",
      "type": "constructor"
    },
    {
      "anonymous": false,
      "inputs": [
        {
          "indexed": false,
          "internalType": "address",
          "name": "_farmer",
          "type": "address"
        }
      ],
      "name": "farmerUpdatedThePrice",
      "type": "event"
    },
    {
      "anonymous": false,
      "inputs": [
        {
          "indexed": false,
          "internalType": "uint256",
          "name": "_state",
          "type": "uint256"
        },
        {
          "indexed": false,
          "internalType": "address",
          "name": "_official",
          "type": "address"
        }
      ],
      "name": "priceUpdated",
      "type": "event"
    },
    {
      "inputs": [
        {
          "internalType": "address",
          "name": "_farmer",
          "type": "address"
        },
        {
          "internalType": "string",
          "name": "_uri",
          "type": "string"
        }
      ],
      "name": "addFarmer",
      "outputs": [],
      "stateMutability": "nonpayable",
      "type": "function"
    },
    {
      "inputs": [
        {
          "internalType": "address",
          "name": "_retailer",
          "type": "address"
        }
      ],
      "name": "checkRetailer",
      "outputs": [
        {
          "internalType": "uint256",
          "name": "",
          "type": "uint256"
        }
      ],
      "stateMutability": "view",
      "type": "function"
    },
    {
      "inputs": [
        {
          "internalType": "address",
          "name": "_farmer",
          "type": "address"
        }
      ],
      "name": "checkVerfiedFarmer",
      "outputs": [
        {
          "internalType": "bool",
          "name": "",
          "type": "bool"
        }
      ],
      "stateMutability": "view",
      "type": "function"
    },
    {
      "inputs": [
        {
          "internalType": "address",
          "name": "_official",
          "type": "address"
        }
      ],
      "name": "checkVerifiedOfficial",
      "outputs": [
        {
          "internalType": "uint256",
          "name": "",
          "type": "uint256"
        }
      ],
      "stateMutability": "view",
      "type": "function"
    },
    {
      "inputs": [],
      "name": "getAllFarmers",
      "outputs": [
        {
          "internalType": "address[]",
          "name": "",
          "type": "address[]"
        }
      ],
      "stateMutability": "view",
      "type": "function"
    },
    {
      "inputs": [
        {
          "internalType": "address",
          "name": "_farmer",
          "type": "address"
        }
      ],
      "name": "getFarmerPrice",
      "outputs": [
        {
          "internalType": "string",
          "name": "",
          "type": "string"
        }
      ],
      "stateMutability": "view",
      "type": "function"
    },
    {
      "inputs": [
        {
          "internalType": "uint256",
          "name": "_state",
          "type": "uint256"
        }
      ],
      "name": "getGovernmentPrice",
      "outputs": [
        {
          "internalType": "string",
          "name": "",
          "type": "string"
        }
      ],
      "stateMutability": "view",
      "type": "function"
    },
    {
      "inputs": [],
      "name": "owner",
      "outputs": [
        {
          "internalType": "address",
          "name": "",
          "type": "address"
        }
      ],
      "stateMutability": "view",
      "type": "function"
    },
    {
      "inputs": [
        {
          "internalType": "string",
          "name": "_uri",
          "type": "string"
        }
      ],
      "name": "updateFarmerPrice",
      "outputs": [],
      "stateMutability": "nonpayable",
      "type": "function"
    },
    {
      "inputs": [
        {
          "internalType": "uint256",
          "name": "_state",
          "type": "uint256"
        },
        {
          "internalType": "string",
          "name": "_uri",
          "type": "string"
        }
      ],
      "name": "updateGovernmentPrice",
      "outputs": [],
      "stateMutability": "nonpayable",
      "type": "function"
    },
    {
      "inputs": [
        {
          "internalType": "address",
          "name": "_official",
          "type": "address"
        }
      ],
      "name": "verifyGovernmentOfficial",
      "outputs": [],
      "stateMutability": "nonpayable",
      "type": "function"
    },
    {
      "inputs": [
        {
          "internalType": "address",
          "name": "_retailer",
          "type": "address"
        }
      ],
      "name": "verifyRetailer",
      "outputs": [],
      "stateMutability": "nonpayable",
      "type": "function"
    }
  ],
  "bytecode": "0x608060405234801561001057600080fd5b50600080546001600160a01b0319163317905561086b806100326000396000f3fe608060405234801561001057600080fd5b50600436106100b45760003560e01c806389671bf01161007157806389671bf01461016d5780638c3fda3a146101805780638da5cb5b146101935780639a8866e1146101be578063b87df623146101f5578063e9e124ce1461021e57600080fd5b80630c7bc51e146100b957806314195f29146100ce57806323e231fe146100f95780633921828a14610122578063536954e4146101355780637e379e261461014a575b600080fd5b6100cc6100c736600461051b565b610249565b005b6100cc6100dc366004610583565b6001600160a01b0316600090815260066020526040902060019055565b61010c610107366004610583565b6102a0565b60405161011991906105a5565b60405180910390f35b61010c6101303660046105f3565b61034c565b61013d610369565b604051610119919061060c565b61015d610158366004610583565b6103cb565b6040519015158152602001610119565b6100cc61017b366004610659565b610407565b6100cc61018e366004610693565b610480565b6000546101a6906001600160a01b031681565b6040516001600160a01b039091168152602001610119565b6101e76101cc366004610583565b6001600160a01b031660009081526002602052604090205490565b604051908152602001610119565b6101e7610203366004610583565b6001600160a01b031660009081526006602052604090205490565b6100cc61022c366004610583565b6001600160a01b0316600090815260026020526040902060019055565b6000838152600160205260409020610262828483610774565b50604080518481523360208201527fb6495d0038486e395e53a2b6bd27d82c1008e3929fee41a9e1ac8ac9aa31766d910160405180910390a1505050565b6001600160a01b03811660009081526003602052604090208054606091906102c7906106eb565b80601f01602080910402602001604051908101604052809291908181526020018280546102f3906106eb565b80156103405780601f1061031557610100808354040283529160200191610340565b820191906000526020600020905b81548152906001019060200180831161032357829003601f168201915b50505050509050919050565b60008181526001602052604090208054606091906102c7906106eb565b606060058054806020026020016040519081016040528092919081815260200182805480156103c157602002820191906000526020600020905b81546001600160a01b031681526001909101906020018083116103a3575b5050505050905090565b6001600160a01b038116600090815260046020526040812080546103ee906106eb565b90506000036103ff57506001919050565b506000919050565b6001600160a01b038316600090815260046020526040902061042a828483610774565b5050600580546001810182556000919091527f036b6384b5eca791c62761152d0c79bb0604c104a5fb6f4eb0703f3154bb3db00180546001600160a01b0319166001600160a01b03939093169290921790915550565b33600090815260036020526040902061049a828483610774565b506040513381527f16ef070ab0260533322fa7e139c5441e37576f0361a106279a7d3229f6b8c0b79060200160405180910390a15050565b60008083601f8401126104e457600080fd5b50813567ffffffffffffffff8111156104fc57600080fd5b60208301915083602082850101111561051457600080fd5b9250929050565b60008060006040848603121561053057600080fd5b83359250602084013567ffffffffffffffff81111561054e57600080fd5b61055a868287016104d2565b9497909650939450505050565b80356001600160a01b038116811461057e57600080fd5b919050565b60006020828403121561059557600080fd5b61059e82610567565b9392505050565b600060208083528351808285015260005b818110156105d2578581018301518582016040015282016105b6565b506000604082860101526040601f19601f8301168501019250505092915050565b60006020828403121561060557600080fd5b5035919050565b6020808252825182820181905260009190848201906040850190845b8181101561064d5783516001600160a01b031683529284019291840191600101610628565b50909695505050505050565b60008060006040848603121561066e57600080fd5b61067784610567565b9250602084013567ffffffffffffffff81111561054e57600080fd5b600080602083850312156106a657600080fd5b823567ffffffffffffffff8111156106bd57600080fd5b6106c9858286016104d2565b90969095509350505050565b634e487b7160e01b600052604160045260246000fd5b600181811c908216806106ff57607f821691505b60208210810361071f57634e487b7160e01b600052602260045260246000fd5b50919050565b601f82111561076f57600081815260208120601f850160051c8101602086101561074c5750805b601f850160051c820191505b8181101561076b57828155600101610758565b5050505b505050565b67ffffffffffffffff83111561078c5761078c6106d5565b6107a08361079a83546106eb565b83610725565b6000601f8411600181146107d457600085156107bc5750838201355b600019600387901b1c1916600186901b17835561082e565b600083815260209020601f19861690835b8281101561080557868501358255602094850194600190920191016107e5565b50868210156108225760001960f88860031b161c19848701351681555b505060018560011b0183555b505050505056fea2646970667358221220b4b6adbfddb393c9da073c5b196beec7d85159979eec31a5748818c7545ee1e264736f6c63430008110033",
  "linkReferences": {},
  "deployedLinkReferences": {}
}