{
  "_format": "hh-sol-artifact-1",
  "contractName": "Farmers",
  "sourceName": "contracts/Farmer.sol",
  "abi": [
    {
      "inputs": [],
      "stateMutability": "nonpayable",
      "type": "constructor"
    },
    {
      "anonymous": false,
      "inputs": [
        {
          "indexed": false,
          "internalType": "address",
          "name": "_farmer",
          "type": "address"
        }
      ],
      "name": "farmerUpdatedThePrice",
      "type": "event"
    },
    {
      "anonymous": false,
      "inputs": [
        {
          "indexed": false,
          "internalType": "uint256",
          "name": "_state",
          "type": "uint256"
        },
        {
          "indexed": false,
          "internalType": "address",
          "name": "_official",
          "type": "address"
        }
      ],
      "name": "priceUpdated",
      "type": "event"
    },
    {
      "inputs": [
        {
          "internalType": "address",
          "name": "_farmer",
          "type": "address"
        },
        {
          "internalType": "string",
          "name": "_uri",
          "type": "string"
        }
      ],
      "name": "addFarmer",
      "outputs": [],
      "stateMutability": "nonpayable",
      "type": "function"
    },
    {
      "inputs": [
        {
          "internalType": "address",
          "name": "_retailer",
          "type": "address"
        }
      ],
      "name": "checkRetailer",
      "outputs": [
        {
          "internalType": "uint256",
          "name": "",
          "type": "uint256"
        }
      ],
      "stateMutability": "view",
      "type": "function"
    },
    {
      "inputs": [
        {
          "internalType": "address",
          "name": "_farmer",
          "type": "address"
        }
      ],
      "name": "checkVerfiedFarmer",
      "outputs": [
        {
          "internalType": "bool",
          "name": "",
          "type": "bool"
        }
      ],
      "stateMutability": "view",
      "type": "function"
    },
    {
      "inputs": [
        {
          "internalType": "address",
          "name": "_official",
          "type": "address"
        }
      ],
      "name": "checkVerifiedOfficial",
      "outputs": [
        {
          "internalType": "uint256",
          "name": "",
          "type": "uint256"
        }
      ],
      "stateMutability": "view",
      "type": "function"
    },
    {
      "inputs": [],
      "name": "getAllFarmers",
      "outputs": [
        {
          "internalType": "address[]",
          "name": "",
          "type": "address[]"
        }
      ],
      "stateMutability": "view",
      "type": "function"
    },
    {
      "inputs": [
        {
          "internalType": "address",
          "name": "_farmer",
          "type": "address"
        }
      ],
      "name": "getFarmerPrice",
      "outputs": [
        {
          "internalType": "string",
          "name": "",
          "type": "string"
        }
      ],
      "stateMutability": "view",
      "type": "function"
    },
    {
      "inputs": [
        {
          "internalType": "uint256",
          "name": "_state",
          "type": "uint256"
        }
      ],
      "name": "getGovernmentPrice",
      "outputs": [
        {
          "internalType": "string",
          "name": "",
          "type": "string"
        }
      ],
      "stateMutability": "view",
      "type": "function"
    },
    {
      "inputs": [
        {
          "internalType": "string",
          "name": "_uri",
          "type": "string"
        }
      ],
      "name": "updateFarmerPrice",
      "outputs": [],
      "stateMutability": "nonpayable",
      "type": "function"
    },
    {
      "inputs": [
        {
          "internalType": "uint256",
          "name": "_state",
          "type": "uint256"
        },
        {
          "internalType": "string",
          "name": "_uri",
          "type": "string"
        }
      ],
      "name": "updateGovernmentPrice",
      "outputs": [],
      "stateMutability": "nonpayable",
      "type": "function"
    },
    {
      "inputs": [
        {
          "internalType": "address",
          "name": "_official",
          "type": "address"
        }
      ],
      "name": "verifyGovernmentOfficial",
      "outputs": [],
      "stateMutability": "nonpayable",
      "type": "function"
    },
    {
      "inputs": [
        {
          "internalType": "address",
          "name": "_retailer",
          "type": "address"
        }
      ],
      "name": "verifyRetailer",
      "outputs": [],
      "stateMutability": "nonpayable",
      "type": "function"
    }
  ],
  "bytecode": "0x608060405234801561001057600080fd5b50600080546001600160a01b03191633179055610835806100326000396000f3fe608060405234801561001057600080fd5b50600436106100a95760003560e01c80637e379e26116100715780637e379e261461013f57806389671bf0146101625780638c3fda3a146101755780639a8866e114610188578063b87df623146101bf578063e9e124ce146101e857600080fd5b80630c7bc51e146100ae57806314195f29146100c357806323e231fe146100ee5780633921828a14610117578063536954e41461012a575b600080fd5b6100c16100bc3660046104e5565b610213565b005b6100c16100d136600461054d565b6001600160a01b0316600090815260066020526040902060019055565b6101016100fc36600461054d565b61026a565b60405161010e919061056f565b60405180910390f35b6101016101253660046105bd565b610316565b610132610333565b60405161010e91906105d6565b61015261014d36600461054d565b610395565b604051901515815260200161010e565b6100c1610170366004610623565b6103d1565b6100c161018336600461065d565b61044a565b6101b161019636600461054d565b6001600160a01b031660009081526002602052604090205490565b60405190815260200161010e565b6101b16101cd36600461054d565b6001600160a01b031660009081526006602052604090205490565b6100c16101f636600461054d565b6001600160a01b0316600090815260026020526040902060019055565b600083815260016020526040902061022c82848361073e565b50604080518481523360208201527fb6495d0038486e395e53a2b6bd27d82c1008e3929fee41a9e1ac8ac9aa31766d910160405180910390a1505050565b6001600160a01b0381166000908152600360205260409020805460609190610291906106b5565b80601f01602080910402602001604051908101604052809291908181526020018280546102bd906106b5565b801561030a5780601f106102df5761010080835404028352916020019161030a565b820191906000526020600020905b8154815290600101906020018083116102ed57829003601f168201915b50505050509050919050565b6000818152600160205260409020805460609190610291906106b5565b6060600580548060200260200160405190810160405280929190818152602001828054801561038b57602002820191906000526020600020905b81546001600160a01b0316815260019091019060200180831161036d575b5050505050905090565b6001600160a01b038116600090815260046020526040812080546103b8906106b5565b90506000036103c957506001919050565b506000919050565b6001600160a01b03831660009081526004602052604090206103f482848361073e565b5050600580546001810182556000919091527f036b6384b5eca791c62761152d0c79bb0604c104a5fb6f4eb0703f3154bb3db00180546001600160a01b0319166001600160a01b03939093169290921790915550565b33600090815260036020526040902061046482848361073e565b506040513381527f16ef070ab0260533322fa7e139c5441e37576f0361a106279a7d3229f6b8c0b79060200160405180910390a15050565b60008083601f8401126104ae57600080fd5b50813567ffffffffffffffff8111156104c657600080fd5b6020830191508360208285010111156104de57600080fd5b9250929050565b6000806000604084860312156104fa57600080fd5b83359250602084013567ffffffffffffffff81111561051857600080fd5b6105248682870161049c565b9497909650939450505050565b80356001600160a01b038116811461054857600080fd5b919050565b60006020828403121561055f57600080fd5b61056882610531565b9392505050565b600060208083528351808285015260005b8181101561059c57858101830151858201604001528201610580565b506000604082860101526040601f19601f8301168501019250505092915050565b6000602082840312156105cf57600080fd5b5035919050565b6020808252825182820181905260009190848201906040850190845b818110156106175783516001600160a01b0316835292840192918401916001016105f2565b50909695505050505050565b60008060006040848603121561063857600080fd5b61064184610531565b9250602084013567ffffffffffffffff81111561051857600080fd5b6000806020838503121561067057600080fd5b823567ffffffffffffffff81111561068757600080fd5b6106938582860161049c565b90969095509350505050565b634e487b7160e01b600052604160045260246000fd5b600181811c908216806106c957607f821691505b6020821081036106e957634e487b7160e01b600052602260045260246000fd5b50919050565b601f82111561073957600081815260208120601f850160051c810160208610156107165750805b601f850160051c820191505b8181101561073557828155600101610722565b5050505b505050565b67ffffffffffffffff8311156107565761075661069f565b61076a8361076483546106b5565b836106ef565b6000601f84116001811461079e57600085156107865750838201355b600019600387901b1c1916600186901b1783556107f8565b600083815260209020601f19861690835b828110156107cf57868501358255602094850194600190920191016107af565b50868210156107ec5760001960f88860031b161c19848701351681555b505060018560011b0183555b505050505056fea26469706673582212208343d9f6aa066a4ff20e5937d3636d5a00038b87008ec48dd77531fcd32de40464736f6c63430008110033",
  "linkReferences": {},
  "deployedLinkReferences": {}
}